{
  "_format": "hh-sol-artifact-1",
  "contractName": "Ludo",
  "sourceName": "contracts/Ludo.sol",
  "abi": [
    {
      "inputs": [],
      "stateMutability": "nonpayable",
      "type": "constructor"
    },
    {
      "anonymous": false,
      "inputs": [
        {
          "indexed": false,
          "internalType": "enum Ludo.Player",
          "name": "player",
          "type": "uint8"
        },
        {
          "indexed": false,
          "internalType": "uint8",
          "name": "newPosition",
          "type": "uint8"
        }
      ],
      "name": "PlayerMoved",
      "type": "event"
    },
    {
      "inputs": [
        {
          "internalType": "enum Ludo.Player",
          "name": "player",
          "type": "uint8"
        }
      ],
      "name": "getPlayerPosition",
      "outputs": [
        {
          "internalType": "uint8",
          "name": "",
          "type": "uint8"
        }
      ],
      "stateMutability": "view",
      "type": "function"
    },
    {
      "inputs": [
        {
          "internalType": "enum Ludo.Player",
          "name": "",
          "type": "uint8"
        }
      ],
      "name": "hasCompleted",
      "outputs": [
        {
          "internalType": "bool",
          "name": "",
          "type": "bool"
        }
      ],
      "stateMutability": "view",
      "type": "function"
    },
    {
      "inputs": [
        {
          "internalType": "enum Ludo.Player",
          "name": "player",
          "type": "uint8"
        }
      ],
      "name": "movePlayer",
      "outputs": [],
      "stateMutability": "nonpayable",
      "type": "function"
    },
    {
      "inputs": [
        {
          "internalType": "enum Ludo.Player",
          "name": "",
          "type": "uint8"
        }
      ],
      "name": "playerPositions",
      "outputs": [
        {
          "internalType": "uint8",
          "name": "",
          "type": "uint8"
        }
      ],
      "stateMutability": "view",
      "type": "function"
    }
  ],
  "bytecode": "0x608060405234801561001057600080fd5b5060008060006001600481111561002a57610029610159565b5b600481111561003c5761003b610159565b5b815260200190815260200160002060006101000a81548160ff021916908360ff16021790555060008060006002600481111561007b5761007a610159565b5b600481111561008d5761008c610159565b5b815260200190815260200160002060006101000a81548160ff021916908360ff1602179055506000806000600360048111156100cc576100cb610159565b5b60048111156100de576100dd610159565b5b815260200190815260200160002060006101000a81548160ff021916908360ff160217905550600080600060048081111561011c5761011b610159565b5b600481111561012e5761012d610159565b5b815260200190815260200160002060006101000a81548160ff021916908360ff160217905550610188565b7f4e487b7100000000000000000000000000000000000000000000000000000000600052602160045260246000fd5b6107e7806101976000396000f3fe608060405234801561001057600080fd5b506004361061004c5760003560e01c8063163fb8d2146100515780636ae23b5e1461008157806398cd1c29146100b1578063c987301a146100cd575b600080fd5b61006b6004803603810190610066919061046f565b6100fd565b60405161007891906104b8565b60405180910390f35b61009b6004803603810190610096919061046f565b61014a565b6040516100a891906104b8565b60405180910390f35b6100cb60048036038101906100c6919061046f565b61016a565b005b6100e760048036038101906100e2919061046f565b6103f3565b6040516100f491906104ee565b60405180910390f35b600080600083600481111561011557610114610509565b5b600481111561012757610126610509565b5b815260200190815260200160002060009054906101000a900460ff169050919050565b60006020528060005260406000206000915054906101000a900460ff1681565b6000600481111561017e5761017d610509565b5b81600481111561019157610190610509565b5b036101d1576040517f08c379a00000000000000000000000000000000000000000000000000000000081526004016101c890610595565b60405180910390fd5b600160008260048111156101e8576101e7610509565b5b60048111156101fa576101f9610509565b5b815260200190815260200160002060009054906101000a900460ff1615610256576040517f08c379a000000000000000000000000000000000000000000000000000000000815260040161024d90610627565b60405180910390fd5b60006102a460008084600481111561027157610270610509565b5b600481111561028357610282610509565b5b815260200190815260200160002060009054906101000a900460ff16610413565b90506000816000808560048111156102bf576102be610509565b5b60048111156102d1576102d0610509565b5b815260200190815260200160002060009054906101000a900460ff166102f79190610676565b9050602860ff168160ff161061036657600180600085600481111561031f5761031e610509565b5b600481111561033157610330610509565b5b815260200190815260200160002060006101000a81548160ff02191690831515021790555060288161036391906106ab565b90505b8060008085600481111561037d5761037c610509565b5b600481111561038f5761038e610509565b5b815260200190815260200160002060006101000a81548160ff021916908360ff1602179055507fca34b12c75bfb5fb1e82f4c3bc68c05315907621cd82be505f91006976ffe32e83826040516103e6929190610728565b60405180910390a1505050565b60016020528060005260406000206000915054906101000a900460ff1681565b6000806001600684426104269190610676565b6104309190610780565b61043a9190610676565b905080915050919050565b600080fd5b6005811061045757600080fd5b50565b6000813590506104698161044a565b92915050565b60006020828403121561048557610484610445565b5b60006104938482850161045a565b91505092915050565b600060ff82169050919050565b6104b28161049c565b82525050565b60006020820190506104cd60008301846104a9565b92915050565b60008115159050919050565b6104e8816104d3565b82525050565b600060208201905061050360008301846104df565b92915050565b7f4e487b7100000000000000000000000000000000000000000000000000000000600052602160045260246000fd5b600082825260208201905092915050565b7f496e76616c696420706c61796572000000000000000000000000000000000000600082015250565b600061057f600e83610538565b915061058a82610549565b602082019050919050565b600060208201905081810360008301526105ae81610572565b9050919050565b7f506c617965722068617320616c726561647920636f6d706c657465642074686560008201527f2067616d65000000000000000000000000000000000000000000000000000000602082015250565b6000610611602583610538565b915061061c826105b5565b604082019050919050565b6000602082019050818103600083015261064081610604565b9050919050565b7f4e487b7100000000000000000000000000000000000000000000000000000000600052601160045260246000fd5b60006106818261049c565b915061068c8361049c565b9250828201905060ff8111156106a5576106a4610647565b5b92915050565b60006106b68261049c565b91506106c18361049c565b9250828203905060ff8111156106da576106d9610647565b5b92915050565b600581106106f1576106f0610509565b5b50565b6000819050610702826106e0565b919050565b6000610712826106f4565b9050919050565b61072281610707565b82525050565b600060408201905061073d6000830185610719565b61074a60208301846104a9565b9392505050565b7f4e487b7100000000000000000000000000000000000000000000000000000000600052601260045260246000fd5b600061078b8261049c565b91506107968361049c565b9250826107a6576107a5610751565b5b82820690509291505056fea2646970667358221220c8700b5ad58bbac5a4bfbb511b71509f90ed269d07a03524af45318e3885e2fe64736f6c63430008120033",
  "linkReferences": {},
  "deployedLinkReferences": {}
}